:020000040000FA
:060000008A150A12002817
:08000800A000030E8301A1001A
:100010000A08A2008A010408C100831603138C1C7D
:100020001528831203138C184228831603130C1C03
:100030001D28831203130C183728831203138B1EF9
:1000400023280B192C284108840022088A00210E3D
:100050008300A00E200E09000B1183120313C20BA4
:1000600023280330C2000B118B12C41423280C1058
:10007000D20B23280A30D200C51940284315232863
:10008000451623288C1023284310240884004B3065
:1000900084074D300406031959284C30040603190F
:1000A00082284E3004060319AF28BC0100087422D0
:1000B0000800C310C315CD1F6228C31485212D303D
:1000C000632185214D08CD1B4D09A9003408CD1FA2
:1000D0006D283409013E0319A90AAE0029087422CB
:1000E00085212E3063212E08342285212708303EB9
:1000F000632185212808303E632185212908303E6F
:10010000632108004C08D400D41BC314C31C8928E5
:10011000D40985212030C3182D306321852154084E
:10012000742285212E306321852155083422270829
:10013000303E632185212808303E6321852129082E
:10014000303E6321C3100800A5000A302502031CBD
:10015000AC282508373E08002508303E08008521D8
:10016000A0308400840A000E0F39A4206321852169
:1001700000080F39A420632185218403000E0F3964
:10018000A4206321852100080F39A4206321852143
:10019000080009308A002408003A031900292408BD
:1001A000013A03190C292408023A031918292408D2
:1001B000033A031920290800C311C3138521013014
:1001C0004D218521CA018030013E4D2185214608FF
:1001D000A4004818A403C818000048190000C9204A
:1001E0008A01003A0319F728CA0A6321E628852103
:1001F0008030093E4D21442002298030073E4D21A8
:10020000442002298521C030013E4D21CA018521AB
:100210004608A40048180000C818A40A4819A40AEF
:10022000C9208A01003A03191829CA0A632107293B
:100230008521C030093E4D2144202329C030073E8E
:100240004D2144202329852180304D2185212030D6
:1002500063218521C0304D218521203063218521F6
:1002600080304818C030C8188030D300C91C3A29E3
:10027000083ED30053084D2185212A306321080010
:100280000B1D40290B110B1D43290B110B1D46297A
:100290000B110B1D49290B110800BF00BF0EF030D8
:1002A00087050F303F058707071700000000071379
:1002B000BF0EF03087050F303F0587070717000096
:1002C00000000713080007164D2107120800071247
:1002D0000800A30007122308C0004D211630A50016
:1002E000FF3EA40085212030C0006321A50B7229A8
:1002F000672123080800BF004D2185212030BF0061
:100300006321A30B7D2967210800F0308705831640
:10031000031307080F388700831203138716071289
:100320000717070EF039C000071307170708071350
:100330000F39C007C01B9029831603138030870034
:1003400083120313871207120800672187018101B6
:100350008B120B110330A4004021033087070717CD
:1003600000000000071381018B120B114021810155
:100370008B120B114021A40BAD2902308707071700
:1003800000000000071381014021852128304D2104
:1003900085210C304D21852101304D2185210630EC
:1003A0004D2185210800B101B201AA01B800380829
:1003B000031DDD293708031908003C08B0003B087D
:1003C000AF003808BB02031CED293708BC02031C30
:1003D000ED29B10A0319B20ADD293708031D080007
:1003E0003C0803190800BC03E92930080319172A3F
:1003F000AA000130BC000030BB00BD01BE013B08BB
:100400003808BB02031C062ABE0AFF293C08031950
:100410000C2ABC03BE0AFF293008B8003E08BA0007
:10042000B0013A08B007B803031D112A08002F08CD
:10043000BC000030BB00BD01BE013808D32131082B
:10044000B000AF010800BB00BC01B7016430D3218C
:100450003108A7002F08BB00BC010A30D3213108A6
:10046000A8002F08A9000800B800B7010330BA009F
:10047000B901E830BD00BE01380850223208BC0086
:100480003108BB00B7016430D3213108A7002F0821
:10049000BB000A30D3213108A8002F08A9000800AA
:1004A000B800B101B201B001AF01380803196E2ADA
:1004B000B8033908B2073A08B1070318B20A3D0871
:1004C000B007031C662AB10A0319B20A3E08AF0737
:1004D000031C552AB00A0319B10A552A3708031913
:1004E0000800B703B803592A232285212708031DD2
:1004F0007C2A431420307E2A4310303E632185211C
:100500002808031D872A431C872A2030892A431084
:10051000303E632185212908303E63210800870190
:10052000A5210030C600481549140130CB008614BF
:10053000E230CC000A30D200CA018030C7008B17ED
:100540000B17DC20A92C83160313861683120313C2
:100550000800861283160313861283120313080001
:1005600091018C10A9220000A3228C1CB52A08003E
:10057000A922910100008C1086128C1CBD2AA32296
:100580000800831603138612F030831603139200BB
:10059000831203134C3092008C10A322A9228C1CCE
:1005A000CF2A8316031386160000831203138C10C0
:1005B000861EDD2A8C1CD82AE42A861AE12A8C1C85
:1005C000DD2AFF30DC0008000130DC0008004311A8
:1005D000D9010930D8004517D901C122F2224513AB
:1005E000C5150800451B0930C51B09308A00451B8D
:1005F0003221C51B37218A01DA00003A03190800AD
:10060000D90A3C308316031392008312031324305B
:1006100092008C1091010830A3005A1CB8225A187D
:10062000B02286160310DA0CA30B0D2BF22A45120A
:10063000C5114510D901C517C122F222C513A0303A
:1006400084002B23A03084000930A3005E235B08C4
:100650000319972B08005808A5003C308316031394
:100660009200243083120313920091018C10083001
:10067000A300910180018C10A9220000000000005D
:10068000A3220000000000000000000000000000A5
:10069000000000000000000000000000000000005A
:1006A000861E0310861A0314800C8C1C552B8C108C
:1006B000A30B3C2B840AA50B372B0800DB01000899
:1006C000840ADB0600305B185E3ADB18BC3A5B1923
:1006D000613ADB19C23A5B1A9D3ADB1A233A5B1B7B
:1006E000463ADB1B8C3ADB00A30B5F2B08000408A7
:1006F000CE00840A801F832B8403013080020318FC
:10070000832B840A8003A03084000008B0000F30DF
:100710003005B400B40E000E840A0F39AD000F305E
:100720000005AC002C0EAD072D08CD000800A03050
:100730008400772386184316C31D0800C3170800DA
:100740000519A42B4C24A92CA601C4014918AA2BD5
:10075000C918BB2B4608033A0319B32BC60AC801B4
:100760004814DC20A92CC60149148030C700C801F8
:10077000C814DC20A92C460884004B3084074608A6
:10078000003A0319D62B4608013A0319C92B8003F6
:10079000E62BE1300006031DD12B08308000D50187
:1007A000D52B8030D50703188003E62B4B3084000F
:1007B00000300006031DE12B013080008614061076
:1007C000E62B0130800286100610E62BDC20A92CD7
:1007D000051AEC2B4C24A92CA601C4014918F22BB4
:1007E000C918FB2B4608003A0319FA2BC603C801A7
:1007F000C814DC20A92C460884004B308407460826
:10080000003A0319162C4608013A0319092C800AEC
:10081000262C08300006031D112CE1308000D50184
:10082000262C8030D502031C800A262C4B308400F5
:1008300001300006031D212C0030800086100610B8
:10084000262C0130800786140610262CDC20A92CCB
:1008500085192C2C4C24A92CA601C4014918322C32
:10086000C9183A2C4608023A0319A92C4910C91490
:10087000DC20A92C4914C91085218030083E4D2167
:100880008521203063218521C030083E4D218521FE
:1008900020306321DC20A92C0330C20081010B1120
:1008A0008B168316031301178312031308004418D1
:1008B00008004414A60126144C2C441808004414C3
:1008C000A601A6144C2C441808004414A6012615B1
:1008D0004C2C43124C08D6005508D700D61F902C3C
:1008E0000618772C4030D702031CD60A7B2C4030E8
:1008F000D7070318D603CD1F8C2C56084D020319B9
:10090000842C03188C2C8E2C3408D61F882C340988
:100910005702031C8E2C8C2C0614080006100800AD
:100920000618972C4030D7070318D60A9B2C403066
:10093000D702031CD603CD1B8E2C56084D0203197B
:10094000A42C03188C2C8E2C3408570203188E2CE0
:100950008C2C431A69244319E722451A1723C31B19
:10096000DC20C41CBA2CC4102618A02BA618E82B17
:100970002619282C4418C22C051D5724051E5D2459
:06098000851D6324A92C73
:10100000830185018601870100309F003530900003
:101010008B018B130B138B120B119412981300304E
:10102000970091010C1083168C018D010C140C1388
:101030003F308500FC30860080308700D73081004B
:1010400060309F00373092001A30990098018C125E
:10105000831298018312031787018316031300304C
:1010600091008316031307309C0083120313203072
:1010700084008001840A7F300406031D3928A030D3
:1010800084008001840AFF300406031D41288A1170
:041090000A128F2A87
:101200004A088207753472347534633468346F3435
:101210006D342034203400344A0882076E3461343F
:1012200073347434613477346134203420340034BE
:101230004A088207743465346D34703420340034C5
:101240004A0882076834653478342E3420340034F8
:101250004A088207753472347534633468346F34E5
:101260006D34003459088207CC34443400345908B2
:101270008207CC34BE34003459088207333400343A
:02400E00E23C92
:00000001FF
